{
  "_format": "hh-sol-artifact-1",
  "contractName": "AuroraERC721",
  "sourceName": "contracts/AuroraERC721.sol",
  "abi": [
    {
      "inputs": [
        {
          "internalType": "string",
          "name": "name",
          "type": "string"
        },
        {
          "internalType": "string",
          "name": "symbol",
          "type": "string"
        }
      ],
      "stateMutability": "nonpayable",
      "type": "constructor"
    },
    {
      "anonymous": false,
      "inputs": [
        {
          "indexed": true,
          "internalType": "address",
          "name": "owner",
          "type": "address"
        },
        {
          "indexed": true,
          "internalType": "address",
          "name": "approved",
          "type": "address"
        },
        {
          "indexed": true,
          "internalType": "uint256",
          "name": "tokenId",
          "type": "uint256"
        }
      ],
      "name": "Approval",
      "type": "event"
    },
    {
      "anonymous": false,
      "inputs": [
        {
          "indexed": true,
          "internalType": "address",
          "name": "owner",
          "type": "address"
        },
        {
          "indexed": true,
          "internalType": "address",
          "name": "operator",
          "type": "address"
        },
        {
          "indexed": false,
          "internalType": "bool",
          "name": "approved",
          "type": "bool"
        }
      ],
      "name": "ApprovalForAll",
      "type": "event"
    },
    {
      "anonymous": false,
      "inputs": [
        {
          "indexed": true,
          "internalType": "address",
          "name": "from",
          "type": "address"
        },
        {
          "indexed": true,
          "internalType": "address",
          "name": "to",
          "type": "address"
        },
        {
          "indexed": true,
          "internalType": "uint256",
          "name": "tokenId",
          "type": "uint256"
        }
      ],
      "name": "Transfer",
      "type": "event"
    },
    {
      "inputs": [
        {
          "internalType": "uint256",
          "name": "",
          "type": "uint256"
        },
        {
          "internalType": "uint256",
          "name": "",
          "type": "uint256"
        }
      ],
      "name": "AllTokensGift",
      "outputs": [
        {
          "internalType": "string",
          "name": "",
          "type": "string"
        }
      ],
      "stateMutability": "view",
      "type": "function"
    },
    {
      "inputs": [
        {
          "internalType": "uint256",
          "name": "",
          "type": "uint256"
        },
        {
          "internalType": "uint256",
          "name": "",
          "type": "uint256"
        }
      ],
      "name": "AllUserToken",
      "outputs": [
        {
          "internalType": "string",
          "name": "",
          "type": "string"
        }
      ],
      "stateMutability": "view",
      "type": "function"
    },
    {
      "inputs": [
        {
          "internalType": "uint256",
          "name": "BidId",
          "type": "uint256"
        }
      ],
      "name": "BidURI",
      "outputs": [
        {
          "internalType": "string",
          "name": "",
          "type": "string"
        }
      ],
      "stateMutability": "view",
      "type": "function"
    },
    {
      "inputs": [
        {
          "internalType": "uint256",
          "name": "_eventId",
          "type": "uint256"
        }
      ],
      "name": "DistributeToken",
      "outputs": [],
      "stateMutability": "nonpayable",
      "type": "function"
    },
    {
      "inputs": [
        {
          "internalType": "string",
          "name": "_TokenID",
          "type": "string"
        }
      ],
      "name": "GetGiftURIFromToken",
      "outputs": [
        {
          "internalType": "string",
          "name": "",
          "type": "string"
        }
      ],
      "stateMutability": "view",
      "type": "function"
    },
    {
      "inputs": [
        {
          "internalType": "string",
          "name": "_TokenID",
          "type": "string"
        }
      ],
      "name": "GetGiftedFromToken",
      "outputs": [
        {
          "internalType": "string",
          "name": "",
          "type": "string"
        }
      ],
      "stateMutability": "view",
      "type": "function"
    },
    {
      "inputs": [
        {
          "internalType": "string",
          "name": "_user",
          "type": "string"
        }
      ],
      "name": "GetNFTsByUserAddrs",
      "outputs": [
        {
          "internalType": "string[]",
          "name": "",
          "type": "string[]"
        }
      ],
      "stateMutability": "view",
      "type": "function"
    },
    {
      "inputs": [
        {
          "internalType": "string",
          "name": "_TokenID",
          "type": "string"
        }
      ],
      "name": "UnWrapGift",
      "outputs": [
        {
          "internalType": "uint256",
          "name": "",
          "type": "uint256"
        }
      ],
      "stateMutability": "nonpayable",
      "type": "function"
    },
    {
      "inputs": [],
      "name": "_EventTokenSearchIds",
      "outputs": [
        {
          "internalType": "uint256",
          "name": "",
          "type": "uint256"
        }
      ],
      "stateMutability": "view",
      "type": "function"
    },
    {
      "inputs": [
        {
          "internalType": "uint256",
          "name": "",
          "type": "uint256"
        },
        {
          "internalType": "uint256",
          "name": "",
          "type": "uint256"
        }
      ],
      "name": "_SearchedStore",
      "outputs": [
        {
          "internalType": "string",
          "name": "",
          "type": "string"
        }
      ],
      "stateMutability": "view",
      "type": "function"
    },
    {
      "inputs": [
        {
          "internalType": "string",
          "name": "_TokenID",
          "type": "string"
        },
        {
          "internalType": "string",
          "name": "_GiftURI",
          "type": "string"
        }
      ],
      "name": "_SetGift",
      "outputs": [
        {
          "internalType": "uint256",
          "name": "",
          "type": "uint256"
        }
      ],
      "stateMutability": "nonpayable",
      "type": "function"
    },
    {
      "inputs": [],
      "name": "_UserTokenIds",
      "outputs": [
        {
          "internalType": "uint256",
          "name": "",
          "type": "uint256"
        }
      ],
      "stateMutability": "view",
      "type": "function"
    },
    {
      "inputs": [
        {
          "internalType": "uint256",
          "name": "_tokenId",
          "type": "uint256"
        }
      ],
      "name": "_getSearchedTokenURI",
      "outputs": [
        {
          "internalType": "string",
          "name": "",
          "type": "string"
        }
      ],
      "stateMutability": "view",
      "type": "function"
    },
    {
      "inputs": [
        {
          "internalType": "uint256",
          "name": "bidId",
          "type": "uint256"
        },
        {
          "internalType": "string",
          "name": "_bidURI",
          "type": "string"
        }
      ],
      "name": "_setBidURI",
      "outputs": [],
      "stateMutability": "nonpayable",
      "type": "function"
    },
    {
      "inputs": [
        {
          "internalType": "uint256",
          "name": "_eventId",
          "type": "uint256"
        },
        {
          "internalType": "string",
          "name": "_raised",
          "type": "string"
        }
      ],
      "name": "_setEventRaised",
      "outputs": [],
      "stateMutability": "nonpayable",
      "type": "function"
    },
    {
      "inputs": [
        {
          "internalType": "uint256",
          "name": "eventId",
          "type": "uint256"
        },
        {
          "internalType": "string",
          "name": "_eventWallet",
          "type": "string"
        },
        {
          "internalType": "string",
          "name": "_eventURI",
          "type": "string"
        }
      ],
      "name": "_setEventURI",
      "outputs": [],
      "stateMutability": "nonpayable",
      "type": "function"
    },
    {
      "inputs": [
        {
          "internalType": "uint256",
          "name": "TokenBidId",
          "type": "uint256"
        },
        {
          "internalType": "uint256",
          "name": "TokenId",
          "type": "uint256"
        },
        {
          "internalType": "string",
          "name": "_BidURI",
          "type": "string"
        }
      ],
      "name": "_setTokenBid",
      "outputs": [],
      "stateMutability": "nonpayable",
      "type": "function"
    },
    {
      "inputs": [
        {
          "internalType": "uint256",
          "name": "EventTokenId",
          "type": "uint256"
        },
        {
          "internalType": "uint256",
          "name": "EventId",
          "type": "uint256"
        },
        {
          "internalType": "string",
          "name": "_tokenURI",
          "type": "string"
        }
      ],
      "name": "_setTokenEvent",
      "outputs": [],
      "stateMutability": "nonpayable",
      "type": "function"
    },
    {
      "inputs": [
        {
          "internalType": "uint256",
          "name": "tokenId",
          "type": "uint256"
        },
        {
          "internalType": "string",
          "name": "_tokenURI",
          "type": "string"
        }
      ],
      "name": "_setTokenURI",
      "outputs": [],
      "stateMutability": "nonpayable",
      "type": "function"
    },
    {
      "inputs": [
        {
          "internalType": "address",
          "name": "to",
          "type": "address"
        },
        {
          "internalType": "uint256",
          "name": "tokenId",
          "type": "uint256"
        }
      ],
      "name": "approve",
      "outputs": [],
      "stateMutability": "nonpayable",
      "type": "function"
    },
    {
      "inputs": [
        {
          "internalType": "address",
          "name": "owner",
          "type": "address"
        }
      ],
      "name": "balanceOf",
      "outputs": [
        {
          "internalType": "uint256",
          "name": "",
          "type": "uint256"
        }
      ],
      "stateMutability": "view",
      "type": "function"
    },
    {
      "inputs": [
        {
          "internalType": "address",
          "name": "_claimer",
          "type": "address"
        },
        {
          "internalType": "string",
          "name": "_tokenURI",
          "type": "string"
        },
        {
          "internalType": "uint256",
          "name": "_eventid",
          "type": "uint256"
        }
      ],
      "name": "claimToken",
      "outputs": [
        {
          "internalType": "uint256",
          "name": "",
          "type": "uint256"
        }
      ],
      "stateMutability": "nonpayable",
      "type": "function"
    },
    {
      "inputs": [
        {
          "internalType": "uint256",
          "name": "_tokenId",
          "type": "uint256"
        },
        {
          "internalType": "string",
          "name": "_bidURI",
          "type": "string"
        },
        {
          "internalType": "string",
          "name": "_updatedURI",
          "type": "string"
        },
        {
          "internalType": "string",
          "name": "_highestBidder",
          "type": "string"
        },
        {
          "internalType": "uint256",
          "name": "_eventid",
          "type": "uint256"
        },
        {
          "internalType": "string",
          "name": "_raised",
          "type": "string"
        }
      ],
      "name": "createBid",
      "outputs": [],
      "stateMutability": "nonpayable",
      "type": "function"
    },
    {
      "inputs": [
        {
          "internalType": "string",
          "name": "_eventWallet",
          "type": "string"
        },
        {
          "internalType": "string",
          "name": "_eventURI",
          "type": "string"
        }
      ],
      "name": "createEvent",
      "outputs": [
        {
          "internalType": "uint256",
          "name": "",
          "type": "uint256"
        }
      ],
      "stateMutability": "nonpayable",
      "type": "function"
    },
    {
      "inputs": [
        {
          "internalType": "string",
          "name": "_TokenID",
          "type": "string"
        },
        {
          "internalType": "string",
          "name": "_Recipient",
          "type": "string"
        },
        {
          "internalType": "string",
          "name": "_GiftURI",
          "type": "string"
        }
      ],
      "name": "createTokenGift",
      "outputs": [
        {
          "internalType": "uint256",
          "name": "",
          "type": "uint256"
        }
      ],
      "stateMutability": "nonpayable",
      "type": "function"
    },
    {
      "inputs": [
        {
          "internalType": "uint256",
          "name": "eventId",
          "type": "uint256"
        }
      ],
      "name": "eventURI",
      "outputs": [
        {
          "internalType": "string[3]",
          "name": "",
          "type": "string[3]"
        }
      ],
      "stateMutability": "view",
      "type": "function"
    },
    {
      "inputs": [
        {
          "internalType": "uint256",
          "name": "tokenId",
          "type": "uint256"
        }
      ],
      "name": "getApproved",
      "outputs": [
        {
          "internalType": "address",
          "name": "",
          "type": "address"
        }
      ],
      "stateMutability": "view",
      "type": "function"
    },
    {
      "inputs": [
        {
          "internalType": "string",
          "name": "_bidURI",
          "type": "string"
        }
      ],
      "name": "getBidIdByUri",
      "outputs": [
        {
          "internalType": "uint256",
          "name": "",
          "type": "uint256"
        }
      ],
      "stateMutability": "view",
      "type": "function"
    },
    {
      "inputs": [
        {
          "internalType": "uint256",
          "name": "TokenID",
          "type": "uint256"
        }
      ],
      "name": "getBidsSearchToken",
      "outputs": [
        {
          "internalType": "string[]",
          "name": "",
          "type": "string[]"
        }
      ],
      "stateMutability": "view",
      "type": "function"
    },
    {
      "inputs": [
        {
          "internalType": "uint256",
          "name": "_eventId",
          "type": "uint256"
        }
      ],
      "name": "getEventRaised",
      "outputs": [
        {
          "internalType": "string",
          "name": "",
          "type": "string"
        }
      ],
      "stateMutability": "view",
      "type": "function"
    },
    {
      "inputs": [
        {
          "internalType": "uint256",
          "name": "EventId",
          "type": "uint256"
        },
        {
          "internalType": "string",
          "name": "_tokenURI",
          "type": "string"
        }
      ],
      "name": "getGetEventsTokenID",
      "outputs": [
        {
          "internalType": "uint256",
          "name": "",
          "type": "uint256"
        }
      ],
      "stateMutability": "view",
      "type": "function"
    },
    {
      "inputs": [
        {
          "internalType": "string",
          "name": "Wallet",
          "type": "string"
        }
      ],
      "name": "getSearchEventbyWallet",
      "outputs": [
        {
          "internalType": "string[]",
          "name": "",
          "type": "string[]"
        }
      ],
      "stateMutability": "view",
      "type": "function"
    },
    {
      "inputs": [
        {
          "internalType": "uint256",
          "name": "EventID",
          "type": "uint256"
        }
      ],
      "name": "getTokensSearchEvent",
      "outputs": [
        {
          "internalType": "string[]",
          "name": "",
          "type": "string[]"
        }
      ],
      "stateMutability": "nonpayable",
      "type": "function"
    },
    {
      "inputs": [
        {
          "internalType": "uint256",
          "name": "TokenID",
          "type": "uint256"
        }
      ],
      "name": "getTotalBid",
      "outputs": [
        {
          "internalType": "string[]",
          "name": "",
          "type": "string[]"
        }
      ],
      "stateMutability": "view",
      "type": "function"
    },
    {
      "inputs": [
        {
          "internalType": "string",
          "name": "_eventURI",
          "type": "string"
        }
      ],
      "name": "geteventIdByUri",
      "outputs": [
        {
          "internalType": "uint256",
          "name": "",
          "type": "uint256"
        }
      ],
      "stateMutability": "view",
      "type": "function"
    },
    {
      "inputs": [
        {
          "internalType": "string",
          "name": "_tokenURI",
          "type": "string"
        }
      ],
      "name": "geteventIdFromTokenURI",
      "outputs": [
        {
          "internalType": "string",
          "name": "",
          "type": "string"
        }
      ],
      "stateMutability": "view",
      "type": "function"
    },
    {
      "inputs": [
        {
          "internalType": "string",
          "name": "_tokenURI",
          "type": "string"
        }
      ],
      "name": "gettokenIdByUri",
      "outputs": [
        {
          "internalType": "uint256",
          "name": "",
          "type": "uint256"
        }
      ],
      "stateMutability": "view",
      "type": "function"
    },
    {
      "inputs": [
        {
          "internalType": "uint256",
          "name": "EventID",
          "type": "uint256"
        }
      ],
      "name": "gettokenSearchEventTotal",
      "outputs": [
        {
          "internalType": "string[]",
          "name": "",
          "type": "string[]"
        }
      ],
      "stateMutability": "view",
      "type": "function"
    },
    {
      "inputs": [
        {
          "internalType": "address",
          "name": "owner",
          "type": "address"
        },
        {
          "internalType": "address",
          "name": "operator",
          "type": "address"
        }
      ],
      "name": "isApprovedForAll",
      "outputs": [
        {
          "internalType": "bool",
          "name": "",
          "type": "bool"
        }
      ],
      "stateMutability": "view",
      "type": "function"
    },
    {
      "inputs": [],
      "name": "name",
      "outputs": [
        {
          "internalType": "string",
          "name": "",
          "type": "string"
        }
      ],
      "stateMutability": "view",
      "type": "function"
    },
    {
      "inputs": [],
      "name": "owner",
      "outputs": [
        {
          "internalType": "address",
          "name": "",
          "type": "address"
        }
      ],
      "stateMutability": "view",
      "type": "function"
    },
    {
      "inputs": [
        {
          "internalType": "uint256",
          "name": "tokenId",
          "type": "uint256"
        }
      ],
      "name": "ownerOf",
      "outputs": [
        {
          "internalType": "address",
          "name": "",
          "type": "address"
        }
      ],
      "stateMutability": "view",
      "type": "function"
    },
    {
      "inputs": [
        {
          "internalType": "address",
          "name": "from",
          "type": "address"
        },
        {
          "internalType": "address",
          "name": "to",
          "type": "address"
        },
        {
          "internalType": "uint256",
          "name": "tokenId",
          "type": "uint256"
        }
      ],
      "name": "safeTransferFrom",
      "outputs": [],
      "stateMutability": "nonpayable",
      "type": "function"
    },
    {
      "inputs": [
        {
          "internalType": "address",
          "name": "from",
          "type": "address"
        },
        {
          "internalType": "address",
          "name": "to",
          "type": "address"
        },
        {
          "internalType": "uint256",
          "name": "tokenId",
          "type": "uint256"
        },
        {
          "internalType": "bytes",
          "name": "_data",
          "type": "bytes"
        }
      ],
      "name": "safeTransferFrom",
      "outputs": [],
      "stateMutability": "nonpayable",
      "type": "function"
    },
    {
      "inputs": [
        {
          "internalType": "address",
          "name": "operator",
          "type": "address"
        },
        {
          "internalType": "bool",
          "name": "approved",
          "type": "bool"
        }
      ],
      "name": "setApprovalForAll",
      "outputs": [],
      "stateMutability": "nonpayable",
      "type": "function"
    },
    {
      "inputs": [
        {
          "internalType": "string",
          "name": "_str",
          "type": "string"
        }
      ],
      "name": "strToUint",
      "outputs": [
        {
          "internalType": "uint256",
          "name": "res",
          "type": "uint256"
        }
      ],
      "stateMutability": "pure",
      "type": "function"
    },
    {
      "inputs": [
        {
          "internalType": "bytes4",
          "name": "interfaceId",
          "type": "bytes4"
        }
      ],
      "name": "supportsInterface",
      "outputs": [
        {
          "internalType": "bool",
          "name": "",
          "type": "bool"
        }
      ],
      "stateMutability": "view",
      "type": "function"
    },
    {
      "inputs": [],
      "name": "symbol",
      "outputs": [
        {
          "internalType": "string",
          "name": "",
          "type": "string"
        }
      ],
      "stateMutability": "view",
      "type": "function"
    },
    {
      "inputs": [
        {
          "internalType": "uint256",
          "name": "tokenId",
          "type": "uint256"
        }
      ],
      "name": "tokenURI",
      "outputs": [
        {
          "internalType": "string",
          "name": "",
          "type": "string"
        }
      ],
      "stateMutability": "view",
      "type": "function"
    },
    {
      "inputs": [],
      "name": "totalEvent",
      "outputs": [
        {
          "internalType": "uint256",
          "name": "",
          "type": "uint256"
        }
      ],
      "stateMutability": "view",
      "type": "function"
    },
    {
      "inputs": [],
      "name": "totalSupply",
      "outputs": [
        {
          "internalType": "uint256",
          "name": "",
          "type": "uint256"
        }
      ],
      "stateMutability": "view",
      "type": "function"
    },
    {
      "inputs": [
        {
          "internalType": "address",
          "name": "from",
          "type": "address"
        },
        {
          "internalType": "address",
          "name": "to",
          "type": "address"
        },
        {
          "internalType": "uint256",
          "name": "tokenId",
          "type": "uint256"
        }
      ],
      "name": "transferFrom",
      "outputs": [],
      "stateMutability": "nonpayable",
      "type": "function"
    }
  ],
  "bytecode": "0x60806040523480156200001157600080fd5b5060405162005fe638038062005fe68339818101604052810190620000379190620001a3565b818181600090805190602001906200005192919062000075565b5080600190805190602001906200006a92919062000075565b5050505050620003ac565b8280546200008390620002bd565b90600052602060002090601f016020900481019282620000a75760008555620000f3565b82601f10620000c257805160ff1916838001178555620000f3565b82800160010185558215620000f3579182015b82811115620000f2578251825591602001919060010190620000d5565b5b50905062000102919062000106565b5090565b5b808211156200012157600081600090555060010162000107565b5090565b60006200013c620001368462000251565b62000228565b9050828152602081018484840111156200015b576200015a6200038c565b5b6200016884828562000287565b509392505050565b600082601f83011262000188576200018762000387565b5b81516200019a84826020860162000125565b91505092915050565b60008060408385031215620001bd57620001bc62000396565b5b600083015167ffffffffffffffff811115620001de57620001dd62000391565b5b620001ec8582860162000170565b925050602083015167ffffffffffffffff81111562000210576200020f62000391565b5b6200021e8582860162000170565b9150509250929050565b60006200023462000247565b9050620002428282620002f3565b919050565b6000604051905090565b600067ffffffffffffffff8211156200026f576200026e62000358565b5b6200027a826200039b565b9050602081019050919050565b60005b83811015620002a75780820151818401526020810190506200028a565b83811115620002b7576000848401525b50505050565b60006002820490506001821680620002d657607f821691505b60208210811415620002ed57620002ec62000329565b5b50919050565b620002fe826200039b565b810181811067ffffffffffffffff8211171562000320576200031f62000358565b5b80604052505050565b7f4e487b7100000000000000000000000000000000000000000000000000000000600052602260045260246000fd5b7f4e487b7100000000000000000000000000000000000000000000000000000000600052604160045260246000fd5b600080fd5b600080fd5b600080fd5b600080fd5b6000601f19601f8301169050919050565b615c2a80620003bc6000396000f3fe608060405234801561001057600080fd5b506004361061030c5760003560e01c80637cedbc1e1161019d578063c5ef3ec5116100e9578063d8c23d34116100a2578063e257a94c1161007c578063e257a94c14610aa1578063e8736f4014610ad1578063e985e9c514610aef578063eb1d234d14610b1f5761030c565b8063d8c23d3414610a25578063e08033d314610a55578063e1af189e14610a715761030c565b8063c5ef3ec514610919578063c87b56dd14610949578063cd62ca1a14610979578063ce917591146109a9578063d45fc516146109d9578063d654e99314610a095761030c565b80639f9b376f11610156578063aed4796111610130578063aed479611461086d578063b10a5dfa1461089d578063b5dd0f5b146108cd578063b88d4fde146108fd5761030c565b80639f9b376f146107f1578063a0fd0c6a14610821578063a22cb465146108515761030c565b80637cedbc1e1461071b5780637eadfa6a1461074b5780638da5cb5b14610769578063932a196b1461078757806395d89b41146107b75780639dace298146107d55761030c565b806328520ab71161025c578063446a92e31161021557806361958158116101ef578063619581581461066f5780636352211e1461068b57806370a08231146106bb5780637411c4bb146106eb5761030c565b8063446a92e3146105df5780634eb083ec1461060f5780635154380a1461063f5761030c565b806328520ab7146104fb57806329ccdcad1461052b57806335011d901461055b5780633592dd801461058b5780633d4089c9146105a757806342842e0e146105c35761030c565b80630e1e27dd116102c957806318160ddd116102a357806318160ddd146104615780631e65e1171461047f578063209d72e6146104af57806323b872dd146104df5761030c565b80630e1e27dd146103f7578063144cbca6146104275780631677bf08146104455761030c565b8063015388681461031157806301ffc9a71461032d57806306d9a55c1461035d57806306fdde031461038d578063081812fc146103ab578063095ea7b3146103db575b600080fd5b61032b600480360381019061032691906147d1565b610b4f565b005b610347600480360381019061034291906145e2565b610b8f565b6040516103549190614f42565b60405180910390f35b610377600480360381019061037291906149b5565b610c71565b6040516103849190614f5d565b60405180910390f35b610395610d21565b6040516103a29190614f5d565b60405180910390f35b6103c560048036038101906103c091906147a4565b610db3565b6040516103d29190614e97565b60405180910390f35b6103f560048036038101906103f091906145a2565b610e38565b005b610411600480360381019061040c919061463c565b610f50565b60405161041e9190614f5d565b60405180910390f35b61042f6110b3565b60405161043c919061511f565b60405180910390f35b61045f600480360381019061045a91906147d1565b6110b9565b005b6104696110e5565b604051610476919061511f565b60405180910390f35b6104996004803603810190610494919061463c565b6110ef565b6040516104a69190614f20565b60405180910390f35b6104c960048036038101906104c4919061463c565b611313565b6040516104d69190614f5d565b60405180910390f35b6104f960048036038101906104f4919061441d565b611476565b005b610515600480360381019061051091906147d1565b6114d6565b604051610522919061511f565b60405180910390f35b6105456004803603810190610540919061463c565b6115af565b604051610552919061511f565b60405180910390f35b61057560048036038101906105709190614533565b6116a4565b604051610582919061511f565b60405180910390f35b6105a560048036038101906105a091906149f5565b611707565b005b6105c160048036038101906105bc91906147a4565b61174b565b005b6105dd60048036038101906105d8919061441d565b6118dd565b005b6105f960048036038101906105f491906147a4565b6118fd565b6040516106069190614f5d565b60405180910390f35b610629600480360381019061062491906147a4565b6119a2565b6040516106369190614f5d565b60405180910390f35b610659600480360381019061065491906147a4565b611a47565b6040516106669190614f20565b60405180910390f35b6106896004803603810190610684919061482d565b611bf7565b005b6106a560048036038101906106a091906147a4565b611c6e565b6040516106b29190614e97565b60405180910390f35b6106d560048036038101906106d091906143b0565b611d20565b6040516106e2919061511f565b60405180910390f35b61070560048036038101906107009190614685565b611dd8565b604051610712919061511f565b60405180910390f35b610735600480360381019061073091906147a4565b611eea565b6040516107429190614f5d565b60405180910390f35b610753611fa3565b604051610760919061511f565b60405180910390f35b610771611fad565b60405161077e9190614e97565b60405180910390f35b6107a1600480360381019061079c919061463c565b611fd3565b6040516107ae919061511f565b60405180910390f35b6107bf612056565b6040516107cc9190614f5d565b60405180910390f35b6107ef60048036038101906107ea91906148b8565b6120e8565b005b61080b600480360381019061080691906149b5565b612278565b6040516108189190614f5d565b60405180910390f35b61083b600480360381019061083691906147a4565b612328565b6040516108489190614efe565b60405180910390f35b61086b600480360381019061086691906144f3565b612408565b005b610887600480360381019061088291906147a4565b61241e565b6040516108949190614f20565b60405180910390f35b6108b760048036038101906108b291906149b5565b6125ce565b6040516108c49190614f5d565b60405180910390f35b6108e760048036038101906108e2919061463c565b61267e565b6040516108f49190614f5d565b60405180910390f35b61091760048036038101906109129190614470565b6127e1565b005b610933600480360381019061092e919061463c565b612843565b604051610940919061511f565b60405180910390f35b610963600480360381019061095e91906147a4565b612956565b6040516109709190614f5d565b60405180910390f35b610993600480360381019061098e919061463c565b612a0f565b6040516109a0919061511f565b60405180910390f35b6109c360048036038101906109be91906146fd565b612a92565b6040516109d0919061511f565b60405180910390f35b6109f360048036038101906109ee919061463c565b612bc7565b604051610a00919061511f565b60405180910390f35b610a236004803603810190610a1e91906149f5565b612c36565b005b610a3f6004803603810190610a3a91906147a4565b612c7a565b604051610a4c9190614f20565b60405180910390f35b610a6f6004803603810190610a6a91906147d1565b612ebf565b005b610a8b6004803603810190610a86919061463c565b612eeb565b604051610a989190614f20565b60405180910390f35b610abb6004803603810190610ab69190614685565b61311f565b604051610ac8919061511f565b60405180910390f35b610ad9613192565b604051610ae6919061511f565b60405180910390f35b610b096004803603810190610b0491906143dd565b613198565b604051610b169190614f42565b60405180910390f35b610b396004803603810190610b3491906147a4565b61322c565b604051610b469190614f20565b60405180910390f35b8060146000848152602001908152602001600020600060028110610b7657610b75615777565b5b019080519060200190610b8a929190614093565b505050565b60007f80ac58cd000000000000000000000000000000000000000000000000000000007bffffffffffffffffffffffffffffffffffffffffffffffffffffffff1916827bffffffffffffffffffffffffffffffffffffffffffffffffffffffff19161480610c5a57507f5b5e139f000000000000000000000000000000000000000000000000000000007bffffffffffffffffffffffffffffffffffffffffffffffffffffffff1916827bffffffffffffffffffffffffffffffffffffffffffffffffffffffff1916145b80610c6a5750610c698261345f565b5b9050919050565b60106020528160005260406000208160028110610c8d57600080fd5b01600091509150508054610ca09061560d565b80601f0160208091040260200160405190810160405280929190818152602001828054610ccc9061560d565b8015610d195780601f10610cee57610100808354040283529160200191610d19565b820191906000526020600020905b815481529060010190602001808311610cfc57829003601f168201915b505050505081565b606060008054610d309061560d565b80601f0160208091040260200160405190810160405280929190818152602001828054610d5c9061560d565b8015610da95780601f10610d7e57610100808354040283529160200191610da9565b820191906000526020600020905b815481529060010190602001808311610d8c57829003601f168201915b5050505050905090565b6000610dbe826134c9565b610dfd576040517f08c379a0000000000000000000000000000000000000000000000000000000008152600401610df4906150bf565b60405180910390fd5b6004600083815260200190815260200160002060009054906101000a900473ffffffffffffffffffffffffffffffffffffffff169050919050565b6000610e4382611c6e565b90508073ffffffffffffffffffffffffffffffffffffffff168373ffffffffffffffffffffffffffffffffffffffff161415610eb4576040517f08c379a0000000000000000000000000000000000000000000000000000000008152600401610eab906150df565b60405180910390fd5b8073ffffffffffffffffffffffffffffffffffffffff16610ed3613535565b73ffffffffffffffffffffffffffffffffffffffff161480610f025750610f0181610efc613535565b613198565b5b610f41576040517f08c379a0000000000000000000000000000000000000000000000000000000008152600401610f389061503f565b60405180910390fd5b610f4b838361353d565b505050565b606060005b600954811015611074578280519060200120600e6000838152602001908152602001600020600160028110610f8d57610f8c615777565b5b01604051610f9b9190614e80565b6040518091039020141561106157600e6000828152602001908152602001600020600060028110610fcf57610fce615777565b5b018054610fdb9061560d565b80601f01602080910402602001604051908101604052809291908181526020018280546110079061560d565b80156110545780601f1061102957610100808354040283529160200191611054565b820191906000526020600020905b81548152906001019060200180831161103757829003601f168201915b50505050509150506110ae565b808061106c90615670565b915050610f55565b506040518060400160405280600481526020017f6e6f6e650000000000000000000000000000000000000000000000000000000081525090505b919050565b600c5481565b806016600084815260200190815260200160002090805190602001906110e0929190614093565b505050565b6000600654905090565b606060008060005b60085481101561116d5784805190602001206015600083815260200190815260200160002060006003811061112f5761112e615777565b5b0160405161113d9190614e80565b6040518091039020141561115a57828061115690615670565b9350505b808061116590615670565b9150506110f7565b5060008267ffffffffffffffff81111561118a576111896157a6565b5b6040519080825280602002602001820160405280156111bd57816020015b60608152602001906001900390816111a85790505b50905060005b600854811015611307578580519060200120601560008381526020019081526020016000206000600381106111fb576111fa615777565b5b016040516112099190614e80565b604051809103902014156112f4576015600082815260200190815260200160002060016003811061123d5761123c615777565b5b0180546112499061560d565b80601f01602080910402602001604051908101604052809291908181526020018280546112759061560d565b80156112c25780601f10611297576101008083540402835291602001916112c2565b820191906000526020600020905b8154815290600101906020018083116112a557829003601f168201915b50505050508284815181106112da576112d9615777565b5b602002602001018190525082806112f090615670565b9350505b80806112ff90615670565b9150506111c3565b50809350505050919050565b606060005b600b54811015611437578280519060200120601060008381526020019081526020016000206000600281106113505761134f615777565b5b0160405161135e9190614e80565b60405180910390201415611424576010600082815260200190815260200160002060016002811061139257611391615777565b5b01805461139e9061560d565b80601f01602080910402602001604051908101604052809291908181526020018280546113ca9061560d565b80156114175780601f106113ec57610100808354040283529160200191611417565b820191906000526020600020905b8154815290600101906020018083116113fa57829003601f168201915b5050505050915050611471565b808061142f90615670565b915050611318565b506040518060400160405280600281526020017f7b7d00000000000000000000000000000000000000000000000000000000000081525090505b919050565b611487611481613535565b826135f6565b6114c6576040517f08c379a00000000000000000000000000000000000000000000000000000000081526004016114bd906150ff565b60405180910390fd5b6114d18383836136d4565b505050565b600080600090505b6009548110156115a3576114f18461393b565b80519060200120600e600083815260200190815260200160002060006002811061151e5761151d615777565b5b0160405161152c9190614e80565b604051809103902014801561158257508280519060200120600e600083815260200190815260200160002060016002811061156a57611569615777565b5b016040516115789190614e80565b6040518091039020145b1561159057809150506115a9565b808061159b90615670565b9150506114de565b50600090505b92915050565b600080600090505b600d54811015611698578280519060200120601160008381526020019081526020016000206001600381106115ef576115ee615777565b5b016040516115fd9190614e80565b60405180910390201415611685576040518060400160405280600581526020017f46616c73650000000000000000000000000000000000000000000000000000008152506011600083815260200190815260200160002060026003811061166757611666615777565b5b01908051906020019061167b929190614093565b508091505061169f565b808061169090615670565b9150506115b7565b50600d5490505b919050565b60006116b284600654613a9c565b6116be60065484610b4f565b6116cb6009548385611707565b600660008154809291906116de90615670565b9190505550600960008154809291906116f690615670565b919050555060065490509392505050565b604051806040016040528061171b8461393b565b815260200182815250600e6000858152602001908152602001600020906002611745929190614119565b50505050565b600061175682612c7a565b905060005b600c548110156118d857600061178a83838151811061177d5761177c615777565b5b6020026020010151611fd3565b90506000601460008381526020019081526020016000206001600281106117b4576117b3615777565b5b0180546117c09061560d565b80601f01602080910402602001604051908101604052809291908181526020018280546117ec9061560d565b80156118395780601f1061180e57610100808354040283529160200191611839565b820191906000526020600020905b81548152906001019060200180831161181c57829003601f168201915b505050505090506118528161184d8461393b565b613c76565b6040518060400160405280600881526020017f46696e6973686564000000000000000000000000000000000000000000000000815250601560008781526020019081526020016000206002600381106118ae576118ad615777565b5b0190805190602001906118c2929190614093565b50505080806118d090615670565b91505061175b565b505050565b6118f8838383604051806020016040528060008152506127e1565b505050565b606060136000838152602001908152602001600020805461191d9061560d565b80601f01602080910402602001604051908101604052809291908181526020018280546119499061560d565b80156119965780601f1061196b57610100808354040283529160200191611996565b820191906000526020600020905b81548152906001019060200180831161197957829003601f168201915b50505050509050919050565b60606016600083815260200190815260200160002080546119c29061560d565b80601f01602080910402602001604051908101604052809291908181526020018280546119ee9061560d565b8015611a3b5780601f10611a1057610100808354040283529160200191611a3b565b820191906000526020600020905b815481529060010190602001808311611a1e57829003601f168201915b50505050509050919050565b60606000600a67ffffffffffffffff811115611a6657611a656157a6565b5b604051908082528060200260200182016040528015611a9957816020015b6060815260200190600190039081611a845790505b5090506000805b600a54811015611bec57611ab38561393b565b80519060200120600f6000838152602001908152602001600020600060028110611ae057611adf615777565b5b01604051611aee9190614e80565b60405180910390201415611bd957600f6000828152602001908152602001600020600160028110611b2257611b21615777565b5b018054611b2e9061560d565b80601f0160208091040260200160405190810160405280929190818152602001828054611b5a9061560d565b8015611ba75780601f10611b7c57610100808354040283529160200191611ba7565b820191906000526020600020905b815481529060010190602001808311611b8a57829003601f168201915b5050505050838381518110611bbf57611bbe615777565b5b60200260200101819052508180611bd590615670565b9250505b8080611be490615670565b915050611aa0565b508192505050919050565b60405180606001604052808381526020018281526020016040518060400160405280600581526020017f46616c736500000000000000000000000000000000000000000000000000000081525081525060156000858152602001908152602001600020906003611c6892919061416c565b50505050565b6000806002600084815260200190815260200160002060009054906101000a900473ffffffffffffffffffffffffffffffffffffffff169050600073ffffffffffffffffffffffffffffffffffffffff168173ffffffffffffffffffffffffffffffffffffffff161415611d17576040517f08c379a0000000000000000000000000000000000000000000000000000000008152600401611d0e9061507f565b60405180910390fd5b80915050919050565b60008073ffffffffffffffffffffffffffffffffffffffff168273ffffffffffffffffffffffffffffffffffffffff161415611d91576040517f08c379a0000000000000000000000000000000000000000000000000000000008152600401611d889061505f565b60405180910390fd5b600360008373ffffffffffffffffffffffffffffffffffffffff1673ffffffffffffffffffffffffffffffffffffffff168152602001908152602001600020549050919050565b600080600090505b600b54811015611e8c57838051906020012060106000838152602001908152602001600020600060028110611e1857611e17615777565b5b01604051611e269190614e80565b60405180910390201415611e79578260106000838152602001908152602001600020600160028110611e5b57611e5a615777565b5b019080519060200190611e6f929190614093565b5080915050611ee4565b8080611e8490615670565b915050611de0565b5060405180604001604052808481526020018381525060106000600b548152602001908152602001600020906002611ec5929190614119565b50600b6000815480929190611ed990615670565b9190505550600b5490505b92915050565b606060126000838152602001908152602001600020600060028110611f1257611f11615777565b5b018054611f1e9061560d565b80601f0160208091040260200160405190810160405280929190818152602001828054611f4a9061560d565b8015611f975780601f10611f6c57610100808354040283529160200191611f97565b820191906000526020600020905b815481529060010190602001808311611f7a57829003601f168201915b50505050509050919050565b6000600854905090565b601860009054906101000a900473ffffffffffffffffffffffffffffffffffffffff1681565b600080600090505b60065481101561204b5782805190602001206014600083815260200190815260200160002060006002811061201357612012615777565b5b016040516120219190614e80565b604051809103902014156120385780915050612051565b808061204390615670565b915050611fdb565b50600090505b919050565b6060600180546120659061560d565b80601f01602080910402602001604051908101604052809291908181526020018280546120919061560d565b80156120de5780601f106120b3576101008083540402835291602001916120de565b820191906000526020600020905b8154815290600101906020018083116120c157829003601f168201915b5050505050905090565b60006121a383601460008a815260200190815260200160002060006002811061211457612113615777565b5b0180546121209061560d565b80601f016020809104026020016040519081016040528092919081815260200182805461214c9061560d565b80156121995780601f1061216e57610100808354040283529160200191612199565b820191906000526020600020905b81548152906001019060200180831161217c57829003601f168201915b50505050506114d6565b905084601460008981526020019081526020016000206000600281106121cc576121cb615777565b5b0190805190602001906121e0929190614093565b50836014600089815260200190815260200160002060016002811061220857612207615777565b5b01908051906020019061221c929190614093565b50612228818487611707565b61223283836110b9565b61223f600a548888612c36565b600a600081548092919061225290615670565b91905055506007600081548092919061226a90615670565b919050555050505050505050565b6011602052816000526040600020816003811061229457600080fd5b016000915091505080546122a79061560d565b80601f01602080910402602001604051908101604052809291908181526020018280546122d39061560d565b80156123205780601f106122f557610100808354040283529160200191612320565b820191906000526020600020905b81548152906001019060200180831161230357829003601f168201915b505050505081565b6123306141bf565b60156000838152602001908152602001600020600380602002604051908101604052809291906000905b828210156123fd5783820180546123709061560d565b80601f016020809104026020016040519081016040528092919081815260200182805461239c9061560d565b80156123e95780601f106123be576101008083540402835291602001916123e9565b820191906000526020600020905b8154815290600101906020018083116123cc57829003601f168201915b50505050508152602001906001019061235a565b505050509050919050565b61241a612413613535565b8383613d06565b5050565b60606000600a67ffffffffffffffff81111561243d5761243c6157a6565b5b60405190808252806020026020018201604052801561247057816020015b606081526020019060019003908161245b5790505b5090506000805b600a548110156125c35761248a8561393b565b80519060200120600f60008381526020019081526020016000206000600281106124b7576124b6615777565b5b016040516124c59190614e80565b604051809103902014156125b057600f60008281526020019081526020016000206001600281106124f9576124f8615777565b5b0180546125059061560d565b80601f01602080910402602001604051908101604052809291908181526020018280546125319061560d565b801561257e5780601f106125535761010080835404028352916020019161257e565b820191906000526020600020905b81548152906001019060200180831161256157829003601f168201915b505050505083838151811061259657612595615777565b5b602002602001018190525081806125ac90615670565b9250505b80806125bb90615670565b915050612477565b508192505050919050565b601260205281600052604060002081600281106125ea57600080fd5b016000915091505080546125fd9061560d565b80601f01602080910402602001604051908101604052809291908181526020018280546126299061560d565b80156126765780601f1061264b57610100808354040283529160200191612676565b820191906000526020600020905b81548152906001019060200180831161265957829003601f168201915b505050505081565b606060005b600d548110156127a2578280519060200120601160008381526020019081526020016000206001600381106126bb576126ba615777565b5b016040516126c99190614e80565b6040518091039020141561278f57601160008281526020019081526020016000206002600381106126fd576126fc615777565b5b0180546127099061560d565b80601f01602080910402602001604051908101604052809291908181526020018280546127359061560d565b80156127825780601f1061275757610100808354040283529160200191612782565b820191906000526020600020905b81548152906001019060200180831161276557829003601f168201915b50505050509150506127dc565b808061279a90615670565b915050612683565b506040518060400160405280600581526020017f46616c736500000000000000000000000000000000000000000000000000000081525090505b919050565b6127f26127ec613535565b836135f6565b612831576040517f08c379a0000000000000000000000000000000000000000000000000000000008152600401612828906150ff565b60405180910390fd5b61283d84848484613e73565b50505050565b600080600090505b825181101561294f576000603084838151811061286b5761286a615777565b5b602001015160f81c60f81b60f81c6128839190615516565b60ff1610806128c15750600960308483815181106128a4576128a3615777565b5b602001015160f81c60f81b60f81c6128bc9190615516565b60ff16115b156128d0576000915050612951565b60018184516128df91906154e2565b6128e991906154e2565b600a6128f5919061536a565b603084838151811061290a57612909615777565b5b602001015160f81c60f81b60f81c6129229190615516565b60ff1661292f9190615488565b8261293a9190615290565b9150808061294790615670565b91505061284b565b505b919050565b60606014600083815260200190815260200160002060006002811061297e5761297d615777565b5b01805461298a9061560d565b80601f01602080910402602001604051908101604052809291908181526020018280546129b69061560d565b8015612a035780601f106129d857610100808354040283529160200191612a03565b820191906000526020600020905b8154815290600101906020018083116129e657829003601f168201915b50505050509050919050565b600080600090505b600854811015612a8757828051906020012060156000838152602001908152602001600020600160038110612a4f57612a4e615777565b5b01604051612a5d9190614e80565b60405180910390201415612a745780915050612a8d565b8080612a7f90615670565b915050612a17565b50600090505b919050565b600080600090505b600d54811015612baf57848051906020012060116000838152602001908152602001600020600160038110612ad257612ad1615777565b5b01604051612ae09190614e80565b60405180910390201415612b9c578360116000838152602001908152602001600020600060038110612b1557612b14615777565b5b019080519060200190612b29929190614093565b506040518060400160405280600481526020017f547275650000000000000000000000000000000000000000000000000000000081525060116000838152602001908152602001600020600260038110612b8657612b85615777565b5b019080519060200190612b9a929190614093565b505b8080612ba790615670565b915050612a9a565b50612bba8483611dd8565b50600b5490509392505050565b600080600090505b600754811015612c2b57828051906020012060136000838152602001908152602001600020604051612c019190614e80565b60405180910390201415612c185780915050612c31565b8080612c2390615670565b915050612bcf565b50600090505b919050565b6040518060400160405280612c4a8461393b565b815260200182815250600f6000858152602001908152602001600020906002612c74929190614119565b50505050565b60606000805b600954811015612cfe57612c938461393b565b80519060200120600e6000838152602001908152602001600020600060028110612cc057612cbf615777565b5b01604051612cce9190614e80565b60405180910390201415612ceb578180612ce790615670565b9250505b8080612cf690615670565b915050612c80565b5060008167ffffffffffffffff811115612d1b57612d1a6157a6565b5b604051908082528060200260200182016040528015612d4e57816020015b6060815260200190600190039081612d395790505b5090506000600c8190555060005b600954811015612eb457612d6f8561393b565b80519060200120600e6000838152602001908152602001600020600060028110612d9c57612d9b615777565b5b01604051612daa9190614e80565b60405180910390201415612ea157600e6000828152602001908152602001600020600160028110612dde57612ddd615777565b5b018054612dea9061560d565b80601f0160208091040260200160405190810160405280929190818152602001828054612e169061560d565b8015612e635780601f10612e3857610100808354040283529160200191612e63565b820191906000526020600020905b815481529060010190602001808311612e4657829003601f168201915b505050505082600c5481518110612e7d57612e7c615777565b5b6020026020010181905250600c6000815480929190612e9b90615670565b91905055505b8080612eac90615670565b915050612d5c565b508092505050919050565b80601360008481526020019081526020016000209080519060200190612ee6929190614093565b505050565b606060008060005b600d54811015612f6957848051906020012060116000838152602001908152602001600020600060038110612f2b57612f2a615777565b5b01604051612f399190614e80565b60405180910390201415612f56578280612f5290615670565b9350505b8080612f6190615670565b915050612ef3565b5060008267ffffffffffffffff811115612f8657612f856157a6565b5b604051908082528060200260200182016040528015612fb957816020015b6060815260200190600190039081612fa45790505b50905060005b600d5481101561311357858051906020012060116000838152602001908152602001600020600060038110612ff757612ff6615777565b5b016040516130059190614e80565b60405180910390201415613100576130d36130ce6011600084815260200190815260200160002060016003811061303f5761303e615777565b5b01805461304b9061560d565b80601f01602080910402602001604051908101604052809291908181526020018280546130779061560d565b80156130c45780601f10613099576101008083540402835291602001916130c4565b820191906000526020600020905b8154815290600101906020018083116130a757829003601f168201915b5050505050612843565b612956565b8284815181106130e6576130e5615777565b5b602002602001018190525082806130fc90615670565b9350505b808061310b90615670565b915050612fbf565b50809350505050919050565b600061312e6008548484611bf7565b61316f6008546040518060400160405280600181526020017f30000000000000000000000000000000000000000000000000000000000000008152506110b9565b6008600081548092919061318290615670565b9190505550600854905092915050565b600d5481565b6000600560008473ffffffffffffffffffffffffffffffffffffffff1673ffffffffffffffffffffffffffffffffffffffff16815260200190815260200160002060008373ffffffffffffffffffffffffffffffffffffffff1673ffffffffffffffffffffffffffffffffffffffff16815260200190815260200160002060009054906101000a900460ff16905092915050565b60606000805b6009548110156132b0576132458461393b565b80519060200120600e600083815260200190815260200160002060006002811061327257613271615777565b5b016040516132809190614e80565b6040518091039020141561329d57818061329990615670565b9250505b80806132a890615670565b915050613232565b5060008167ffffffffffffffff8111156132cd576132cc6157a6565b5b60405190808252806020026020018201604052801561330057816020015b60608152602001906001900390816132eb5790505b5090506000805b6009548110156134535761331a8661393b565b80519060200120600e600083815260200190815260200160002060006002811061334757613346615777565b5b016040516133559190614e80565b6040518091039020141561344057600e600082815260200190815260200160002060016002811061338957613388615777565b5b0180546133959061560d565b80601f01602080910402602001604051908101604052809291908181526020018280546133c19061560d565b801561340e5780601f106133e35761010080835404028352916020019161340e565b820191906000526020600020905b8154815290600101906020018083116133f157829003601f168201915b505050505083838151811061342657613425615777565b5b6020026020010181905250818061343c90615670565b9250505b808061344b90615670565b915050613307565b50819350505050919050565b60007f01ffc9a7000000000000000000000000000000000000000000000000000000007bffffffffffffffffffffffffffffffffffffffffffffffffffffffff1916827bffffffffffffffffffffffffffffffffffffffffffffffffffffffff1916149050919050565b60008073ffffffffffffffffffffffffffffffffffffffff166002600084815260200190815260200160002060009054906101000a900473ffffffffffffffffffffffffffffffffffffffff1673ffffffffffffffffffffffffffffffffffffffff1614159050919050565b600033905090565b816004600083815260200190815260200160002060006101000a81548173ffffffffffffffffffffffffffffffffffffffff021916908373ffffffffffffffffffffffffffffffffffffffff160217905550808273ffffffffffffffffffffffffffffffffffffffff166135b083611c6e565b73ffffffffffffffffffffffffffffffffffffffff167f8c5be1e5ebec7d5bd14f71427d1e84f3dd0314c0f7b2291e5b200ac8c7c3b92560405160405180910390a45050565b6000613601826134c9565b613640576040517f08c379a00000000000000000000000000000000000000000000000000000000081526004016136379061501f565b60405180910390fd5b600061364b83611c6e565b90508073ffffffffffffffffffffffffffffffffffffffff168473ffffffffffffffffffffffffffffffffffffffff16148061368d575061368c8185613198565b5b806136cb57508373ffffffffffffffffffffffffffffffffffffffff166136b384610db3565b73ffffffffffffffffffffffffffffffffffffffff16145b91505092915050565b8273ffffffffffffffffffffffffffffffffffffffff166136f482611c6e565b73ffffffffffffffffffffffffffffffffffffffff161461374a576040517f08c379a000000000000000000000000000000000000000000000000000000000815260040161374190614f9f565b60405180910390fd5b600073ffffffffffffffffffffffffffffffffffffffff168273ffffffffffffffffffffffffffffffffffffffff1614156137ba576040517f08c379a00000000000000000000000000000000000000000000000000000000081526004016137b190614fdf565b60405180910390fd5b6137c5838383613ecf565b6137d060008261353d565b6001600360008573ffffffffffffffffffffffffffffffffffffffff1673ffffffffffffffffffffffffffffffffffffffff168152602001908152602001600020600082825461382091906154e2565b925050819055506001600360008473ffffffffffffffffffffffffffffffffffffffff1673ffffffffffffffffffffffffffffffffffffffff16815260200190815260200160002060008282546138779190615290565b92505081905550816002600083815260200190815260200160002060006101000a81548173ffffffffffffffffffffffffffffffffffffffff021916908373ffffffffffffffffffffffffffffffffffffffff160217905550808273ffffffffffffffffffffffffffffffffffffffff168473ffffffffffffffffffffffffffffffffffffffff167fddf252ad1be2c89b69c2b068fc378daa952ba7f163c4a11628f55a4df523b3ef60405160405180910390a4613936838383613ed4565b505050565b60606000821415613983576040518060400160405280600181526020017f30000000000000000000000000000000000000000000000000000000000000008152509050613a97565b600082905060005b600082146139b557808061399e90615670565b915050600a826139ae91906152e6565b915061398b565b60008167ffffffffffffffff8111156139d1576139d06157a6565b5b6040519080825280601f01601f191660200182016040528015613a035781602001600182028036833780820191505090505b5090505b60008514613a9057600182613a1c91906154e2565b9150600a85613a2b91906156b9565b6030613a379190615290565b60f81b818381518110613a4d57613a4c615777565b5b60200101907effffffffffffffffffffffffffffffffffffffffffffffffffffffffffffff1916908160001a905350600a85613a8991906152e6565b9450613a07565b8093505050505b919050565b600073ffffffffffffffffffffffffffffffffffffffff168273ffffffffffffffffffffffffffffffffffffffff161415613b0c576040517f08c379a0000000000000000000000000000000000000000000000000000000008152600401613b039061509f565b60405180910390fd5b613b15816134c9565b15613b55576040517f08c379a0000000000000000000000000000000000000000000000000000000008152600401613b4c90614fbf565b60405180910390fd5b613b6160008383613ecf565b6001600360008473ffffffffffffffffffffffffffffffffffffffff1673ffffffffffffffffffffffffffffffffffffffff1681526020019081526020016000206000828254613bb19190615290565b92505081905550816002600083815260200190815260200160002060006101000a81548173ffffffffffffffffffffffffffffffffffffffff021916908373ffffffffffffffffffffffffffffffffffffffff160217905550808273ffffffffffffffffffffffffffffffffffffffff16600073ffffffffffffffffffffffffffffffffffffffff167fddf252ad1be2c89b69c2b068fc378daa952ba7f163c4a11628f55a4df523b3ef60405160405180910390a4613c7260008383613ed4565b5050565b60405180606001604052808381526020018281526020016040518060400160405280600581526020017f46616c736500000000000000000000000000000000000000000000000000000081525081525060116000600d548152602001908152602001600020906003613ce992919061416c565b50600d6000815480929190613cfd90615670565b91905055505050565b8173ffffffffffffffffffffffffffffffffffffffff168373ffffffffffffffffffffffffffffffffffffffff161415613d75576040517f08c379a0000000000000000000000000000000000000000000000000000000008152600401613d6c90614fff565b60405180910390fd5b80600560008573ffffffffffffffffffffffffffffffffffffffff1673ffffffffffffffffffffffffffffffffffffffff16815260200190815260200160002060008473ffffffffffffffffffffffffffffffffffffffff1673ffffffffffffffffffffffffffffffffffffffff16815260200190815260200160002060006101000a81548160ff0219169083151502179055508173ffffffffffffffffffffffffffffffffffffffff168373ffffffffffffffffffffffffffffffffffffffff167f17307eab39ab6107e8899845ad3d59bd9653f200f220920489ca2b5937696c3183604051613e669190614f42565b60405180910390a3505050565b613e7e8484846136d4565b613e8a84848484613ed9565b613ec9576040517f08c379a0000000000000000000000000000000000000000000000000000000008152600401613ec090614f7f565b60405180910390fd5b50505050565b505050565b505050565b6000613efa8473ffffffffffffffffffffffffffffffffffffffff16614070565b15614063578373ffffffffffffffffffffffffffffffffffffffff1663150b7a02613f23613535565b8786866040518563ffffffff1660e01b8152600401613f459493929190614eb2565b602060405180830381600087803b158015613f5f57600080fd5b505af1925050508015613f9057506040513d601f19601f82011682018060405250810190613f8d919061460f565b60015b614013573d8060008114613fc0576040519150601f19603f3d011682016040523d82523d6000602084013e613fc5565b606091505b5060008151141561400b576040517f08c379a000000000000000000000000000000000000000000000000000000000815260040161400290614f7f565b60405180910390fd5b805181602001fd5b63150b7a0260e01b7bffffffffffffffffffffffffffffffffffffffffffffffffffffffff1916817bffffffffffffffffffffffffffffffffffffffffffffffffffffffff191614915050614068565b600190505b949350505050565b6000808273ffffffffffffffffffffffffffffffffffffffff163b119050919050565b82805461409f9061560d565b90600052602060002090601f0160209004810192826140c15760008555614108565b82601f106140da57805160ff1916838001178555614108565b82800160010185558215614108579182015b828111156141075782518255916020019190600101906140ec565b5b50905061411591906141e6565b5090565b826002810192821561415b579160200282015b8281111561415a57825182908051906020019061414a929190614093565b509160200191906001019061412c565b5b5090506141689190614203565b5090565b82600381019282156141ae579160200282015b828111156141ad57825182908051906020019061419d929190614093565b509160200191906001019061417f565b5b5090506141bb9190614203565b5090565b60405180606001604052806003905b60608152602001906001900390816141ce5790505090565b5b808211156141ff5760008160009055506001016141e7565b5090565b5b80821115614223576000818161421a9190614227565b50600101614204565b5090565b5080546142339061560d565b6000825580601f106142455750614264565b601f01602090049060005260206000209081019061426391906141e6565b5b50565b600061427a6142758461515f565b61513a565b905082815260208101848484011115614296576142956157da565b5b6142a18482856155cb565b509392505050565b60006142bc6142b784615190565b61513a565b9050828152602081018484840111156142d8576142d76157da565b5b6142e38482856155cb565b509392505050565b6000813590506142fa81615b98565b92915050565b60008135905061430f81615baf565b92915050565b60008135905061432481615bc6565b92915050565b60008151905061433981615bc6565b92915050565b600082601f830112614354576143536157d5565b5b8135614364848260208601614267565b91505092915050565b600082601f830112614382576143816157d5565b5b81356143928482602086016142a9565b91505092915050565b6000813590506143aa81615bdd565b92915050565b6000602082840312156143c6576143c56157e4565b5b60006143d4848285016142eb565b91505092915050565b600080604083850312156143f4576143f36157e4565b5b6000614402858286016142eb565b9250506020614413858286016142eb565b9150509250929050565b600080600060608486031215614436576144356157e4565b5b6000614444868287016142eb565b9350506020614455868287016142eb565b92505060406144668682870161439b565b9150509250925092565b6000806000806080858703121561448a576144896157e4565b5b6000614498878288016142eb565b94505060206144a9878288016142eb565b93505060406144ba8782880161439b565b925050606085013567ffffffffffffffff8111156144db576144da6157df565b5b6144e78782880161433f565b91505092959194509250565b6000806040838503121561450a576145096157e4565b5b6000614518858286016142eb565b925050602061452985828601614300565b9150509250929050565b60008060006060848603121561454c5761454b6157e4565b5b600061455a868287016142eb565b935050602084013567ffffffffffffffff81111561457b5761457a6157df565b5b6145878682870161436d565b92505060406145988682870161439b565b9150509250925092565b600080604083850312156145b9576145b86157e4565b5b60006145c7858286016142eb565b92505060206145d88582860161439b565b9150509250929050565b6000602082840312156145f8576145f76157e4565b5b600061460684828501614315565b91505092915050565b600060208284031215614625576146246157e4565b5b60006146338482850161432a565b91505092915050565b600060208284031215614652576146516157e4565b5b600082013567ffffffffffffffff8111156146705761466f6157df565b5b61467c8482850161436d565b91505092915050565b6000806040838503121561469c5761469b6157e4565b5b600083013567ffffffffffffffff8111156146ba576146b96157df565b5b6146c68582860161436d565b925050602083013567ffffffffffffffff8111156146e7576146e66157df565b5b6146f38582860161436d565b9150509250929050565b600080600060608486031215614716576147156157e4565b5b600084013567ffffffffffffffff811115614734576147336157df565b5b6147408682870161436d565b935050602084013567ffffffffffffffff811115614761576147606157df565b5b61476d8682870161436d565b925050604084013567ffffffffffffffff81111561478e5761478d6157df565b5b61479a8682870161436d565b9150509250925092565b6000602082840312156147ba576147b96157e4565b5b60006147c88482850161439b565b91505092915050565b600080604083850312156147e8576147e76157e4565b5b60006147f68582860161439b565b925050602083013567ffffffffffffffff811115614817576148166157df565b5b6148238582860161436d565b9150509250929050565b600080600060608486031215614846576148456157e4565b5b60006148548682870161439b565b935050602084013567ffffffffffffffff811115614875576148746157df565b5b6148818682870161436d565b925050604084013567ffffffffffffffff8111156148a2576148a16157df565b5b6148ae8682870161436d565b9150509250925092565b60008060008060008060c087890312156148d5576148d46157e4565b5b60006148e389828a0161439b565b965050602087013567ffffffffffffffff811115614904576149036157df565b5b61491089828a0161436d565b955050604087013567ffffffffffffffff811115614931576149306157df565b5b61493d89828a0161436d565b945050606087013567ffffffffffffffff81111561495e5761495d6157df565b5b61496a89828a0161436d565b935050608061497b89828a0161439b565b92505060a087013567ffffffffffffffff81111561499c5761499b6157df565b5b6149a889828a0161436d565b9150509295509295509295565b600080604083850312156149cc576149cb6157e4565b5b60006149da8582860161439b565b92505060206149eb8582860161439b565b9150509250929050565b600080600060608486031215614a0e57614a0d6157e4565b5b6000614a1c8682870161439b565b9350506020614a2d8682870161439b565b925050604084013567ffffffffffffffff811115614a4e57614a4d6157df565b5b614a5a8682870161436d565b9150509250925092565b6000614a708383614c38565b905092915050565b614a818161554a565b82525050565b6000614a92826151f0565b614a9c8185615236565b935083602082028501614aae856151c1565b8060005b85811015614aea5784840389528151614acb8582614a64565b9450614ad68361521c565b925060208a01995050600181019050614ab2565b50829750879550505050505092915050565b6000614b07826151fb565b614b118185615241565b935083602082028501614b23856151cb565b8060005b85811015614b5f5784840389528151614b408582614a64565b9450614b4b83615229565b925060208a01995050600181019050614b27565b50829750879550505050505092915050565b614b7a8161555c565b82525050565b6000614b8b82615206565b614b958185615252565b9350614ba58185602086016155da565b614bae816157e9565b840191505092915050565b60008154614bc68161560d565b614bd08186615263565b94506001821660008114614beb5760018114614bfc57614c2f565b60ff19831686528186019350614c2f565b614c05856151db565b60005b83811015614c2757815481890152600182019150602081019050614c08565b838801955050505b50505092915050565b6000614c4382615211565b614c4d818561526e565b9350614c5d8185602086016155da565b614c66816157e9565b840191505092915050565b6000614c7c82615211565b614c86818561527f565b9350614c968185602086016155da565b614c9f816157e9565b840191505092915050565b6000614cb760328361527f565b9150614cc282615807565b604082019050919050565b6000614cda60258361527f565b9150614ce582615856565b604082019050919050565b6000614cfd601c8361527f565b9150614d08826158a5565b602082019050919050565b6000614d2060248361527f565b9150614d2b826158ce565b604082019050919050565b6000614d4360198361527f565b9150614d4e8261591d565b602082019050919050565b6000614d66602c8361527f565b9150614d7182615946565b604082019050919050565b6000614d8960388361527f565b9150614d9482615995565b604082019050919050565b6000614dac602a8361527f565b9150614db7826159e4565b604082019050919050565b6000614dcf60298361527f565b9150614dda82615a33565b604082019050919050565b6000614df260208361527f565b9150614dfd82615a82565b602082019050919050565b6000614e15602c8361527f565b9150614e2082615aab565b604082019050919050565b6000614e3860218361527f565b9150614e4382615afa565b604082019050919050565b6000614e5b60318361527f565b9150614e6682615b49565b604082019050919050565b614e7a816155b4565b82525050565b6000614e8c8284614bb9565b915081905092915050565b6000602082019050614eac6000830184614a78565b92915050565b6000608082019050614ec76000830187614a78565b614ed46020830186614a78565b614ee16040830185614e71565b8181036060830152614ef38184614b80565b905095945050505050565b60006020820190508181036000830152614f188184614a87565b905092915050565b60006020820190508181036000830152614f3a8184614afc565b905092915050565b6000602082019050614f576000830184614b71565b92915050565b60006020820190508181036000830152614f778184614c71565b905092915050565b60006020820190508181036000830152614f9881614caa565b9050919050565b60006020820190508181036000830152614fb881614ccd565b9050919050565b60006020820190508181036000830152614fd881614cf0565b9050919050565b60006020820190508181036000830152614ff881614d13565b9050919050565b6000602082019050818103600083015261501881614d36565b9050919050565b6000602082019050818103600083015261503881614d59565b9050919050565b6000602082019050818103600083015261505881614d7c565b9050919050565b6000602082019050818103600083015261507881614d9f565b9050919050565b6000602082019050818103600083015261509881614dc2565b9050919050565b600060208201905081810360008301526150b881614de5565b9050919050565b600060208201905081810360008301526150d881614e08565b9050919050565b600060208201905081810360008301526150f881614e2b565b9050919050565b6000602082019050818103600083015261511881614e4e565b9050919050565b60006020820190506151346000830184614e71565b92915050565b6000615144615155565b9050615150828261563f565b919050565b6000604051905090565b600067ffffffffffffffff82111561517a576151796157a6565b5b615183826157e9565b9050602081019050919050565b600067ffffffffffffffff8211156151ab576151aa6157a6565b5b6151b4826157e9565b9050602081019050919050565b6000819050919050565b6000819050602082019050919050565b60008190508160005260206000209050919050565b600060039050919050565b600081519050919050565b600081519050919050565b600081519050919050565b6000602082019050919050565b6000602082019050919050565b600081905092915050565b600082825260208201905092915050565b600082825260208201905092915050565b600081905092915050565b600082825260208201905092915050565b600082825260208201905092915050565b600061529b826155b4565b91506152a6836155b4565b9250827fffffffffffffffffffffffffffffffffffffffffffffffffffffffffffffffff038211156152db576152da6156ea565b5b828201905092915050565b60006152f1826155b4565b91506152fc836155b4565b92508261530c5761530b615719565b5b828204905092915050565b6000808291508390505b60018511156153615780860481111561533d5761533c6156ea565b5b600185161561534c5780820291505b808102905061535a856157fa565b9450615321565b94509492505050565b6000615375826155b4565b9150615380836155b4565b92506153ad7fffffffffffffffffffffffffffffffffffffffffffffffffffffffffffffffff84846153b5565b905092915050565b6000826153c55760019050615481565b816153d35760009050615481565b81600181146153e957600281146153f357615422565b6001915050615481565b60ff841115615405576154046156ea565b5b8360020a91508482111561541c5761541b6156ea565b5b50615481565b5060208310610133831016604e8410600b84101617156154575782820a905083811115615452576154516156ea565b5b615481565b6154648484846001615317565b9250905081840481111561547b5761547a6156ea565b5b81810290505b9392505050565b6000615493826155b4565b915061549e836155b4565b9250817fffffffffffffffffffffffffffffffffffffffffffffffffffffffffffffffff04831182151516156154d7576154d66156ea565b5b828202905092915050565b60006154ed826155b4565b91506154f8836155b4565b92508282101561550b5761550a6156ea565b5b828203905092915050565b6000615521826155be565b915061552c836155be565b92508282101561553f5761553e6156ea565b5b828203905092915050565b600061555582615594565b9050919050565b60008115159050919050565b60007fffffffff0000000000000000000000000000000000000000000000000000000082169050919050565b600073ffffffffffffffffffffffffffffffffffffffff82169050919050565b6000819050919050565b600060ff82169050919050565b82818337600083830152505050565b60005b838110156155f85780820151818401526020810190506155dd565b83811115615607576000848401525b50505050565b6000600282049050600182168061562557607f821691505b6020821081141561563957615638615748565b5b50919050565b615648826157e9565b810181811067ffffffffffffffff82111715615667576156666157a6565b5b80604052505050565b600061567b826155b4565b91507fffffffffffffffffffffffffffffffffffffffffffffffffffffffffffffffff8214156156ae576156ad6156ea565b5b600182019050919050565b60006156c4826155b4565b91506156cf836155b4565b9250826156df576156de615719565b5b828206905092915050565b7f4e487b7100000000000000000000000000000000000000000000000000000000600052601160045260246000fd5b7f4e487b7100000000000000000000000000000000000000000000000000000000600052601260045260246000fd5b7f4e487b7100000000000000000000000000000000000000000000000000000000600052602260045260246000fd5b7f4e487b7100000000000000000000000000000000000000000000000000000000600052603260045260246000fd5b7f4e487b7100000000000000000000000000000000000000000000000000000000600052604160045260246000fd5b600080fd5b600080fd5b600080fd5b600080fd5b6000601f19601f8301169050919050565b60008160011c9050919050565b7f4552433732313a207472616e7366657220746f206e6f6e20455243373231526560008201527f63656976657220696d706c656d656e7465720000000000000000000000000000602082015250565b7f4552433732313a207472616e736665722066726f6d20696e636f72726563742060008201527f6f776e6572000000000000000000000000000000000000000000000000000000602082015250565b7f4552433732313a20746f6b656e20616c7265616479206d696e74656400000000600082015250565b7f4552433732313a207472616e7366657220746f20746865207a65726f2061646460008201527f7265737300000000000000000000000000000000000000000000000000000000602082015250565b7f4552433732313a20617070726f766520746f2063616c6c657200000000000000600082015250565b7f4552433732313a206f70657261746f7220717565727920666f72206e6f6e657860008201527f697374656e7420746f6b656e0000000000000000000000000000000000000000602082015250565b7f4552433732313a20617070726f76652063616c6c6572206973206e6f74206f7760008201527f6e6572206e6f7220617070726f76656420666f7220616c6c0000000000000000602082015250565b7f4552433732313a2062616c616e636520717565727920666f7220746865207a6560008201527f726f206164647265737300000000000000000000000000000000000000000000602082015250565b7f4552433732313a206f776e657220717565727920666f72206e6f6e657869737460008201527f656e7420746f6b656e0000000000000000000000000000000000000000000000602082015250565b7f4552433732313a206d696e7420746f20746865207a65726f2061646472657373600082015250565b7f4552433732313a20617070726f76656420717565727920666f72206e6f6e657860008201527f697374656e7420746f6b656e0000000000000000000000000000000000000000602082015250565b7f4552433732313a20617070726f76616c20746f2063757272656e74206f776e6560008201527f7200000000000000000000000000000000000000000000000000000000000000602082015250565b7f4552433732313a207472616e736665722063616c6c6572206973206e6f74206f60008201527f776e6572206e6f7220617070726f766564000000000000000000000000000000602082015250565b615ba18161554a565b8114615bac57600080fd5b50565b615bb88161555c565b8114615bc357600080fd5b50565b615bcf81615568565b8114615bda57600080fd5b50565b615be6816155b4565b8114615bf157600080fd5b5056fea26469706673582212207bd311e52145494765e1bd459c70806b459288341465f615b4acadbb07f1db5a64736f6c63430008060033",
  "linkReferences": {},
  "deployedLinkReferences": {}
}